{
  "contractName": "TownShip_Contract",
  "abi": [
    {
      "inputs": [],
      "payable": true,
      "stateMutability": "payable",
      "type": "constructor",
      "signature": "constructor"
    },
    {
      "constant": false,
      "inputs": [
        {
          "name": "no",
          "type": "uint256"
        }
      ],
      "name": "buyToken",
      "outputs": [
        {
          "name": "",
          "type": "uint256"
        }
      ],
      "payable": true,
      "stateMutability": "payable",
      "type": "function",
      "signature": "0x2d296bf1"
    },
    {
      "constant": true,
      "inputs": [],
      "name": "checkTokensEarned",
      "outputs": [
        {
          "name": "",
          "type": "uint256"
        }
      ],
      "payable": false,
      "stateMutability": "view",
      "type": "function",
      "signature": "0xb773b7c1"
    },
    {
      "constant": true,
      "inputs": [],
      "name": "tokenPrice",
      "outputs": [
        {
          "name": "",
          "type": "uint256"
        }
      ],
      "payable": false,
      "stateMutability": "view",
      "type": "function",
      "signature": "0x7ff9b596"
    },
    {
      "constant": false,
      "inputs": [],
      "name": "selfdestructFunction",
      "outputs": [
        {
          "name": "",
          "type": "bool"
        }
      ],
      "payable": false,
      "stateMutability": "nonpayable",
      "type": "function",
      "signature": "0x1fb1fe61"
    },
    {
      "constant": true,
      "inputs": [],
      "name": "clamOwnerShip",
      "outputs": [
        {
          "name": "",
          "type": "uint256"
        }
      ],
      "payable": false,
      "stateMutability": "view",
      "type": "function",
      "signature": "0x9300d563"
    },
    {
      "constant": true,
      "inputs": [],
      "name": "tokenSold",
      "outputs": [
        {
          "name": "",
          "type": "uint256"
        }
      ],
      "payable": false,
      "stateMutability": "view",
      "type": "function",
      "signature": "0x519ee19e"
    },
    {
      "constant": true,
      "inputs": [],
      "name": "tokenLeft",
      "outputs": [
        {
          "name": "",
          "type": "uint256"
        }
      ],
      "payable": false,
      "stateMutability": "view",
      "type": "function",
      "signature": "0x9679dd7d"
    },
    {
      "constant": true,
      "inputs": [],
      "name": "totalTokens",
      "outputs": [
        {
          "name": "",
          "type": "uint256"
        }
      ],
      "payable": false,
      "stateMutability": "view",
      "type": "function",
      "signature": "0x7e1c0c09"
    },
    {
      "constant": true,
      "inputs": [],
      "name": "ownerAddress",
      "outputs": [
        {
          "name": "",
          "type": "address"
        }
      ],
      "payable": false,
      "stateMutability": "view",
      "type": "function",
      "signature": "0x8f84aa09"
    },
    {
      "constant": true,
      "inputs": [],
      "name": "userAddress",
      "outputs": [
        {
          "name": "",
          "type": "address"
        }
      ],
      "payable": false,
      "stateMutability": "view",
      "type": "function",
      "signature": "0xe4128fb3"
    },
    {
      "constant": true,
      "inputs": [],
      "name": "myBalanceIs",
      "outputs": [
        {
          "name": "",
          "type": "uint256"
        }
      ],
      "payable": false,
      "stateMutability": "view",
      "type": "function",
      "signature": "0x2997fbbe"
    }
  ],
  "bytecode": "0x6080604052611388600755336000806101000a81548173ffffffffffffffffffffffffffffffffffffffff021916908373ffffffffffffffffffffffffffffffffffffffff160217905550600754600360003373ffffffffffffffffffffffffffffffffffffffff1673ffffffffffffffffffffffffffffffffffffffff168152602001908152602001600020819055506103e860028190555042600681905550610a70806100af6000396000f3fe6080604052600436106100af576000357c0100000000000000000000000000000000000000000000000000000000900463ffffffff1680631fb1fe61146100b45780632997fbbe146100e35780632d296bf11461010e578063519ee19e146101505780637e1c0c091461017b5780637ff9b596146101a65780638f84aa09146101d15780639300d563146102285780639679dd7d14610253578063b773b7c11461027e578063e4128fb3146102a9575b600080fd5b3480156100c057600080fd5b506100c9610300565b604051808215151515815260200191505060405180910390f35b3480156100ef57600080fd5b506100f8610376565b6040518082815260200191505060405180910390f35b61013a6004803603602081101561012457600080fd5b81019080803590602001909291905050506103bd565b6040518082815260200191505060405180910390f35b34801561015c57600080fd5b50610165610680565b6040518082815260200191505060405180910390f35b34801561018757600080fd5b506101906106ec565b6040518082815260200191505060405180910390f35b3480156101b257600080fd5b506101bb6106f6565b6040518082815260200191505060405180910390f35b3480156101dd57600080fd5b506101e6610700565b604051808273ffffffffffffffffffffffffffffffffffffffff1673ffffffffffffffffffffffffffffffffffffffff16815260200191505060405180910390f35b34801561023457600080fd5b5061023d610729565b6040518082815260200191505060405180910390f35b34801561025f57600080fd5b50610268610871565b6040518082815260200191505060405180910390f35b34801561028a57600080fd5b50610293610889565b6040518082815260200191505060405180910390f35b3480156102b557600080fd5b506102be6109bb565b604051808273ffffffffffffffffffffffffffffffffffffffff1673ffffffffffffffffffffffffffffffffffffffff16815260200191505060405180910390f35b60008060009054906101000a900473ffffffffffffffffffffffffffffffffffffffff1673ffffffffffffffffffffffffffffffffffffffff163373ffffffffffffffffffffffffffffffffffffffff1614151561035d57600080fd5b3373ffffffffffffffffffffffffffffffffffffffff16ff5b6000600160003373ffffffffffffffffffffffffffffffffffffffff1673ffffffffffffffffffffffffffffffffffffffff16815260200190815260200160002054905090565b60008060009054906101000a900473ffffffffffffffffffffffffffffffffffffffff1673ffffffffffffffffffffffffffffffffffffffff163373ffffffffffffffffffffffffffffffffffffffff161415151561041b57600080fd5b600082111515610493576040517f08c379a000000000000000000000000000000000000000000000000000000000815260040180806020018281038252601b8152602001807f4d757374206265206d6f7265207468616e206f6e6520546f6b656e000000000081525060200191505060405180910390fd5b60025482023373ffffffffffffffffffffffffffffffffffffffff163111151561054b576040517f08c379a00000000000000000000000000000000000000000000000000000000081526004018080602001828103825260258152602001807f42616c616e6365206973206e6f7420656e6f75676820696e20596f757220416381526020017f636f756e7400000000000000000000000000000000000000000000000000000081525060400191505060405180910390fd5b81600360008060009054906101000a900473ffffffffffffffffffffffffffffffffffffffff1673ffffffffffffffffffffffffffffffffffffffff1673ffffffffffffffffffffffffffffffffffffffff168152602001908152602001600020600082825403925050819055506002548202600560008060009054906101000a900473ffffffffffffffffffffffffffffffffffffffff1673ffffffffffffffffffffffffffffffffffffffff1673ffffffffffffffffffffffffffffffffffffffff1681526020019081526020016000206000828254019250508190555081600360003373ffffffffffffffffffffffffffffffffffffffff1673ffffffffffffffffffffffffffffffffffffffff16815260200190815260200160002060008282540192505081905550819050919050565b6000600360008060009054906101000a900473ffffffffffffffffffffffffffffffffffffffff1673ffffffffffffffffffffffffffffffffffffffff1673ffffffffffffffffffffffffffffffffffffffff1681526020019081526020016000205460075403905090565b6000600754905090565b6000600254905090565b60008060009054906101000a900473ffffffffffffffffffffffffffffffffffffffff16905090565b6000662386f26fc1000060065401421115156107d3576040517f08c379a00000000000000000000000000000000000000000000000000000000081526004018080602001828103825260338152602001807f54696d652069732046696e697368656420666f7220436c61696d20576169742081526020017f666f7220616e6f746865722041756374696f6e0000000000000000000000000081525060400191505060405180910390fd5b610456600360003373ffffffffffffffffffffffffffffffffffffffff1673ffffffffffffffffffffffffffffffffffffffff1681526020019081526020016000205411151561086e576040517f08c379a00000000000000000000000000000000000000000000000000000000081526004018080602001828103825260818152602001806109c46081913960a00191505060405180910390fd5b90565b60008061087c610680565b9050806007540391505090565b60008060009054906101000a900473ffffffffffffffffffffffffffffffffffffffff1673ffffffffffffffffffffffffffffffffffffffff163373ffffffffffffffffffffffffffffffffffffffff1614151515610976576040517f08c379a00000000000000000000000000000000000000000000000000000000081526004018080602001828103825260298152602001807f54686520526571756573742053656e646572206973204f776e657220596f752081526020017f617265204f776e6572000000000000000000000000000000000000000000000081525060400191505060405180910390fd5b600360003373ffffffffffffffffffffffffffffffffffffffff1673ffffffffffffffffffffffffffffffffffffffff16815260200190815260200160002054905090565b60003390509056fe596f7520617265204e6f7420456c696769626c6520666f722074686973204f776e6572536869700a596f752068617665202b20277061727469636970656e745f746f6b656e735b6d73672e73656e6465725d2720546f6b656e73204d696e696d756d20546f6b656e206e65656420746f206265206f776e65722069732031313130a165627a7a7230582097e52d0c17666e35e049e42c741f643a0dac0653b5d6bd834ecb77b89e54cc830029",
  "source": "pragma solidity ^0.5.0;\r\n\r\ncontract TownShip_Contract {\r\n\r\n    address payable owner;\r\n    mapping(address => uint) balances;\r\n    uint priceOfToken;\r\n    mapping(address =>uint) participent_tokens;\r\n    uint ownerTokens;\r\n    mapping(address => uint256) balanceOf;\r\n    uint startDate;\r\n    uint totalToken = 5000;\r\n\r\n\r\n\r\n    constructor () public payable {\r\n        \r\n        owner = msg.sender;\r\n        participent_tokens[msg.sender] = totalToken;\r\n        priceOfToken = 1000;\r\n        startDate= now;\r\n    }\r\n    \r\n    modifier onlyAdmin()\r\n    {\r\n        require(msg.sender == owner);\r\n        _;\r\n    }\r\n\r\n    modifier notAdmin()\r\n    {\r\n        require(msg.sender != owner);\r\n        _;\r\n    }\r\n    // buy Token Function\r\n    function buyToken(uint no) public notAdmin payable returns(uint) {\r\n        require(no >0 ,\"Must be more than one Token\");\r\n        require(msg.sender.balance > no * priceOfToken , \"Balance is not enough in Your Account\");\r\n        participent_tokens[owner] -= no;\r\n        balanceOf[owner] += no *priceOfToken;\r\n        participent_tokens[msg.sender] += no;\r\n        //owner.transfer(no *priceOfToken);\r\n        return no;\r\n      \r\n    }\r\n\r\n// Check The NO of Tokens Received    \r\n    function checkTokensEarned()public view returns(uint)\r\n    {\r\n        require(msg.sender != owner ,\"The Request Sender is Owner You are Owner\");\r\n        return participent_tokens[msg.sender];\r\n\r\n    }\r\n    // Check the Price of Token Price\r\n    function tokenPrice()public view returns(uint256){\r\n        \r\n        return priceOfToken;\r\n    }\r\n    \r\n    // Function Destroy the Contract this can did by Admin only\r\n    function selfdestructFunction()public onlyAdmin returns(bool)\r\n    {\r\n          selfdestruct(msg.sender); \r\n          return true;\r\n    }\r\n    \r\n    // function for Claim to OwnereShip\r\n    function clamOwnerShip()public view returns(uint){\r\n             require(now > startDate+ 10000000000000000, \"Time is Finished for Claim Wait for another Auction\");\r\n             require(participent_tokens[msg.sender]> 1110 , \"You are Not Eligible for this OwnerShip\\nYou have + 'participent_tokens[msg.sender]' Tokens Minimum Token need to be owner is 1110\" );\r\n             \r\n    }\r\n    // Function token sold \r\n    function tokenSold()public view returns(uint256) {\r\n        return totalToken - participent_tokens[owner];        \r\n    }\r\n    // function token Left for Sold\r\n    function tokenLeft() public view returns(uint){\r\n         uint tokensSold= tokenSold();\r\n        return totalToken - tokensSold;\r\n    }\r\n    // Return total token for sold \r\n    function totalTokens() public view returns(uint){\r\n        return totalToken;\r\n    }\r\n    // Return Owner Address\r\n    function ownerAddress()public view returns(address){\r\n        return owner;\r\n    }\r\n    // Return the Caller or The User Address\r\n    function userAddress()public view returns(address){\r\n        return msg.sender;\r\n    }\r\n    // REturn Balance of The Current User\r\n    function myBalanceIs()public view returns(uint){\r\n        return balances[msg.sender];\r\n    }\r\n    \r\n}",
  "sourcePath": "C:/Users/Nasir Ali.NEXTAGE/Desktop/TownShipPro/contracts/TownShip_contract.sol",
  "compiler": {
    "name": "solc",
    "version": "0.5.0+commit.1d4f565a.Emscripten.clang"
  },
  "schemaVersion": "3.0.6",
  "updatedAt": "2019-04-11T10:48:06.309Z",
  "devdoc": {
    "methods": {}
  },
  "userdoc": {
    "methods": {}
  }
}